{
  "address": "0x1CF12Dbe0d132EEddAc7ce9a0008e0e3362656cf",
  "abi": [
    {
      "inputs": [
        {
          "internalType": "address",
          "name": "account",
          "type": "address"
        },
        {
          "internalType": "address",
          "name": "minter_",
          "type": "address"
        }
      ],
      "stateMutability": "nonpayable",
      "type": "constructor"
    },
    {
      "anonymous": false,
      "inputs": [
        {
          "indexed": true,
          "internalType": "address",
          "name": "owner",
          "type": "address"
        },
        {
          "indexed": true,
          "internalType": "address",
          "name": "spender",
          "type": "address"
        },
        {
          "indexed": false,
          "internalType": "uint256",
          "name": "amount",
          "type": "uint256"
        }
      ],
      "name": "Approval",
      "type": "event"
    },
    {
      "anonymous": false,
      "inputs": [
        {
          "indexed": true,
          "internalType": "address",
          "name": "delegator",
          "type": "address"
        },
        {
          "indexed": true,
          "internalType": "address",
          "name": "fromDelegate",
          "type": "address"
        },
        {
          "indexed": true,
          "internalType": "address",
          "name": "toDelegate",
          "type": "address"
        }
      ],
      "name": "DelegateChanged",
      "type": "event"
    },
    {
      "anonymous": false,
      "inputs": [
        {
          "indexed": true,
          "internalType": "address",
          "name": "delegate",
          "type": "address"
        },
        {
          "indexed": false,
          "internalType": "uint256",
          "name": "previousBalance",
          "type": "uint256"
        },
        {
          "indexed": false,
          "internalType": "uint256",
          "name": "newBalance",
          "type": "uint256"
        }
      ],
      "name": "DelegateVotesChanged",
      "type": "event"
    },
    {
      "anonymous": false,
      "inputs": [
        {
          "indexed": false,
          "internalType": "address",
          "name": "minter",
          "type": "address"
        },
        {
          "indexed": false,
          "internalType": "address",
          "name": "newMinter",
          "type": "address"
        }
      ],
      "name": "MinterChanged",
      "type": "event"
    },
    {
      "anonymous": false,
      "inputs": [
        {
          "indexed": true,
          "internalType": "address",
          "name": "from",
          "type": "address"
        },
        {
          "indexed": true,
          "internalType": "address",
          "name": "to",
          "type": "address"
        },
        {
          "indexed": false,
          "internalType": "uint256",
          "name": "amount",
          "type": "uint256"
        }
      ],
      "name": "Transfer",
      "type": "event"
    },
    {
      "inputs": [],
      "name": "DELEGATION_TYPEHASH",
      "outputs": [
        {
          "internalType": "bytes32",
          "name": "",
          "type": "bytes32"
        }
      ],
      "stateMutability": "view",
      "type": "function"
    },
    {
      "inputs": [],
      "name": "DOMAIN_TYPEHASH",
      "outputs": [
        {
          "internalType": "bytes32",
          "name": "",
          "type": "bytes32"
        }
      ],
      "stateMutability": "view",
      "type": "function"
    },
    {
      "inputs": [],
      "name": "PERMIT_TYPEHASH",
      "outputs": [
        {
          "internalType": "bytes32",
          "name": "",
          "type": "bytes32"
        }
      ],
      "stateMutability": "view",
      "type": "function"
    },
    {
      "inputs": [
        {
          "internalType": "address",
          "name": "account",
          "type": "address"
        },
        {
          "internalType": "address",
          "name": "spender",
          "type": "address"
        }
      ],
      "name": "allowance",
      "outputs": [
        {
          "internalType": "uint256",
          "name": "",
          "type": "uint256"
        }
      ],
      "stateMutability": "view",
      "type": "function"
    },
    {
      "inputs": [
        {
          "internalType": "address",
          "name": "spender",
          "type": "address"
        },
        {
          "internalType": "uint256",
          "name": "rawAmount",
          "type": "uint256"
        }
      ],
      "name": "approve",
      "outputs": [
        {
          "internalType": "bool",
          "name": "",
          "type": "bool"
        }
      ],
      "stateMutability": "nonpayable",
      "type": "function"
    },
    {
      "inputs": [
        {
          "internalType": "address",
          "name": "account",
          "type": "address"
        }
      ],
      "name": "balanceOf",
      "outputs": [
        {
          "internalType": "uint256",
          "name": "",
          "type": "uint256"
        }
      ],
      "stateMutability": "view",
      "type": "function"
    },
    {
      "inputs": [
        {
          "internalType": "address",
          "name": "",
          "type": "address"
        },
        {
          "internalType": "uint32",
          "name": "",
          "type": "uint32"
        }
      ],
      "name": "checkpoints",
      "outputs": [
        {
          "internalType": "uint32",
          "name": "fromBlock",
          "type": "uint32"
        },
        {
          "internalType": "uint96",
          "name": "votes",
          "type": "uint96"
        }
      ],
      "stateMutability": "view",
      "type": "function"
    },
    {
      "inputs": [],
      "name": "decimals",
      "outputs": [
        {
          "internalType": "uint8",
          "name": "",
          "type": "uint8"
        }
      ],
      "stateMutability": "view",
      "type": "function"
    },
    {
      "inputs": [
        {
          "internalType": "address",
          "name": "delegatee",
          "type": "address"
        }
      ],
      "name": "delegate",
      "outputs": [],
      "stateMutability": "nonpayable",
      "type": "function"
    },
    {
      "inputs": [
        {
          "internalType": "address",
          "name": "delegatee",
          "type": "address"
        },
        {
          "internalType": "uint256",
          "name": "nonce",
          "type": "uint256"
        },
        {
          "internalType": "uint256",
          "name": "expiry",
          "type": "uint256"
        },
        {
          "internalType": "uint8",
          "name": "v",
          "type": "uint8"
        },
        {
          "internalType": "bytes32",
          "name": "r",
          "type": "bytes32"
        },
        {
          "internalType": "bytes32",
          "name": "s",
          "type": "bytes32"
        }
      ],
      "name": "delegateBySig",
      "outputs": [],
      "stateMutability": "nonpayable",
      "type": "function"
    },
    {
      "inputs": [
        {
          "internalType": "address",
          "name": "",
          "type": "address"
        }
      ],
      "name": "delegates",
      "outputs": [
        {
          "internalType": "address",
          "name": "",
          "type": "address"
        }
      ],
      "stateMutability": "view",
      "type": "function"
    },
    {
      "inputs": [
        {
          "internalType": "address",
          "name": "account",
          "type": "address"
        }
      ],
      "name": "getCurrentVotes",
      "outputs": [
        {
          "internalType": "uint96",
          "name": "",
          "type": "uint96"
        }
      ],
      "stateMutability": "view",
      "type": "function"
    },
    {
      "inputs": [
        {
          "internalType": "address",
          "name": "account",
          "type": "address"
        },
        {
          "internalType": "uint256",
          "name": "blockNumber",
          "type": "uint256"
        }
      ],
      "name": "getPriorVotes",
      "outputs": [
        {
          "internalType": "uint96",
          "name": "",
          "type": "uint96"
        }
      ],
      "stateMutability": "view",
      "type": "function"
    },
    {
      "inputs": [],
      "name": "minimumTimeBetweenMints",
      "outputs": [
        {
          "internalType": "uint32",
          "name": "",
          "type": "uint32"
        }
      ],
      "stateMutability": "view",
      "type": "function"
    },
    {
      "inputs": [
        {
          "internalType": "address",
          "name": "dst",
          "type": "address"
        },
        {
          "internalType": "uint256",
          "name": "rawAmount",
          "type": "uint256"
        }
      ],
      "name": "mint",
      "outputs": [],
      "stateMutability": "nonpayable",
      "type": "function"
    },
    {
      "inputs": [],
      "name": "mintCap",
      "outputs": [
        {
          "internalType": "uint8",
          "name": "",
          "type": "uint8"
        }
      ],
      "stateMutability": "view",
      "type": "function"
    },
    {
      "inputs": [],
      "name": "minter",
      "outputs": [
        {
          "internalType": "address",
          "name": "",
          "type": "address"
        }
      ],
      "stateMutability": "view",
      "type": "function"
    },
    {
      "inputs": [],
      "name": "mintingAllowedAfter",
      "outputs": [
        {
          "internalType": "uint256",
          "name": "",
          "type": "uint256"
        }
      ],
      "stateMutability": "view",
      "type": "function"
    },
    {
      "inputs": [],
      "name": "name",
      "outputs": [
        {
          "internalType": "string",
          "name": "",
          "type": "string"
        }
      ],
      "stateMutability": "view",
      "type": "function"
    },
    {
      "inputs": [
        {
          "internalType": "address",
          "name": "",
          "type": "address"
        }
      ],
      "name": "nonces",
      "outputs": [
        {
          "internalType": "uint256",
          "name": "",
          "type": "uint256"
        }
      ],
      "stateMutability": "view",
      "type": "function"
    },
    {
      "inputs": [
        {
          "internalType": "address",
          "name": "",
          "type": "address"
        }
      ],
      "name": "numCheckpoints",
      "outputs": [
        {
          "internalType": "uint32",
          "name": "",
          "type": "uint32"
        }
      ],
      "stateMutability": "view",
      "type": "function"
    },
    {
      "inputs": [
        {
          "internalType": "address",
          "name": "owner",
          "type": "address"
        },
        {
          "internalType": "address",
          "name": "spender",
          "type": "address"
        },
        {
          "internalType": "uint256",
          "name": "rawAmount",
          "type": "uint256"
        },
        {
          "internalType": "uint256",
          "name": "deadline",
          "type": "uint256"
        },
        {
          "internalType": "uint8",
          "name": "v",
          "type": "uint8"
        },
        {
          "internalType": "bytes32",
          "name": "r",
          "type": "bytes32"
        },
        {
          "internalType": "bytes32",
          "name": "s",
          "type": "bytes32"
        }
      ],
      "name": "permit",
      "outputs": [],
      "stateMutability": "nonpayable",
      "type": "function"
    },
    {
      "inputs": [
        {
          "internalType": "address",
          "name": "minter_",
          "type": "address"
        }
      ],
      "name": "setMinter",
      "outputs": [],
      "stateMutability": "nonpayable",
      "type": "function"
    },
    {
      "inputs": [],
      "name": "symbol",
      "outputs": [
        {
          "internalType": "string",
          "name": "",
          "type": "string"
        }
      ],
      "stateMutability": "view",
      "type": "function"
    },
    {
      "inputs": [],
      "name": "totalSupply",
      "outputs": [
        {
          "internalType": "uint256",
          "name": "",
          "type": "uint256"
        }
      ],
      "stateMutability": "view",
      "type": "function"
    },
    {
      "inputs": [
        {
          "internalType": "address",
          "name": "dst",
          "type": "address"
        },
        {
          "internalType": "uint256",
          "name": "rawAmount",
          "type": "uint256"
        }
      ],
      "name": "transfer",
      "outputs": [
        {
          "internalType": "bool",
          "name": "",
          "type": "bool"
        }
      ],
      "stateMutability": "nonpayable",
      "type": "function"
    },
    {
      "inputs": [
        {
          "internalType": "address",
          "name": "src",
          "type": "address"
        },
        {
          "internalType": "address",
          "name": "dst",
          "type": "address"
        },
        {
          "internalType": "uint256",
          "name": "rawAmount",
          "type": "uint256"
        }
      ],
      "name": "transferFrom",
      "outputs": [
        {
          "internalType": "bool",
          "name": "",
          "type": "bool"
        }
      ],
      "stateMutability": "nonpayable",
      "type": "function"
    }
  ],
  "transactionHash": "0xa285642ff17e576dcea1ed51ab8268d7a59d088c24478dc860f5aed5e00be816",
  "args": [
    "0xE693cB9CA5Ec4b2f6a4111ae53308bEF811e9E3E",
    "0xE693cB9CA5Ec4b2f6a4111ae53308bEF811e9E3E"
  ],
  "solcInputHash": "e85c220288a2d0eae07a3067ea06b812",
  "bytecode": "0x60806040526b033b2e3c9fd0803ce80000006000553480156200002157600080fd5b506040516200251538038062002515833981016040819052620000449162000128565b600080546001600160a01b0384168083526004602052604080842080546001600160601b0319166001600160601b0390941693909317909255825491519092917fddf252ad1be2c89b69c2b068fc378daa952ba7f163c4a11628f55a4df523b3ef91620000b2919062000180565b60405180910390a3600180546001600160a01b0319166001600160a01b0383811691909117918290556040517f3b0007eb941cf645526cbb3a4fdaecda9d28ce4843167d9263b536a1f1edc0f692620001119260009291169062000166565b60405180910390a1505060014201600255620001a2565b600080604083850312156200013b578182fd5b8251620001488162000189565b60208401519092506200015b8162000189565b809150509250929050565b6001600160a01b0392831681529116602082015260400190565b90815260200190565b6001600160a01b03811681146200019f57600080fd5b50565b61236380620001b26000396000f3fe608060405234801561001057600080fd5b50600436106101a95760003560e01c80636fcfff45116100f9578063b4b5ea5711610097578063dd62ed3e11610071578063dd62ed3e1461035b578063e7a324dc1461036e578063f1127ed814610376578063fca3b5aa14610397576101a9565b8063b4b5ea5714610322578063c3cda52014610335578063d505accf14610348576101a9565b8063782d6fe1116100d3578063782d6fe1146102d45780637ecebe00146102f457806395d89b4114610307578063a9059cbb1461030f576101a9565b80636fcfff45146102a657806370a08231146102b957806376c71ca1146102cc576101a9565b806330adf81f1161016657806340c10f191161014057806340c10f1914610256578063587cde1e1461026b5780635c11d62f1461027e5780635c19a95c14610293576101a9565b806330adf81f1461023157806330b36cef14610239578063313ce56714610241576101a9565b806306fdde03146101ae57806307546172146101cc578063095ea7b3146101e157806318160ddd1461020157806320606b701461021657806323b872dd1461021e575b600080fd5b6101b66103aa565b6040516101c39190611c00565b60405180910390f35b6101d46103d4565b6040516101c39190611b24565b6101f46101ef366004611a47565b6103e3565b6040516101c39190611b52565b6102096104a2565b6040516101c39190611b5d565b6102096104a8565b6101f461022c36600461199b565b6104cc565b610209610613565b610209610637565b61024961063d565b6040516101c391906120d9565b610269610264366004611a47565b610642565b005b6101d461027936600461194c565b61085a565b610286610875565b6040516101c391906120a9565b6102696102a136600461194c565b61087a565b6102866102b436600461194c565b610887565b6102096102c736600461194c565b61089f565b6102496108c3565b6102e76102e2366004611a47565b6108c8565b6040516101c391906120e7565b61020961030236600461194c565b610ad6565b6101b6610ae8565b6101f461031d366004611a47565b610b08565b6102e761033036600461194c565b610b44565b610269610343366004611a71565b610bb5565b6102696103563660046119db565b610dc1565b610209610369366004611967565b6110c9565b6102096110fd565b610389610384366004611aca565b611121565b6040516101c39291906120ba565b6102696103a536600461194c565b611156565b6040518060400160405280600e81526020016d2130b735b632b9b9902a37b5b2b760911b81525081565b6001546001600160a01b031681565b6000806000198314156103f9575060001961041e565b61041b8360405180606001604052806025815260200161229e602591396111e9565b90505b3360008181526003602090815260408083206001600160a01b03891680855292529182902080546001600160601b0319166001600160601b03861617905590519091907f8c5be1e5ebec7d5bd14f71427d1e84f3dd0314c0f7b2291e5b200ac8c7c3b9259061048e9085906120e7565b60405180910390a360019150505b92915050565b60005481565b7f8cad95687ba82c2ce50e74f7b754645e5117c3a5bec8151c0726d5857980a86681565b6001600160a01b03831660009081526003602090815260408083203380855290835281842054825160608101909352602580845291936001600160601b03909116928592610524928892919061229e908301396111e9565b9050866001600160a01b0316836001600160a01b03161415801561055157506001600160601b0382811614155b156105fb57600061057b83836040518060600160405280603d81526020016121e0603d9139611218565b6001600160a01b038981166000818152600360209081526040808320948a16808452949091529081902080546001600160601b0319166001600160601b0386161790555192935090917f8c5be1e5ebec7d5bd14f71427d1e84f3dd0314c0f7b2291e5b200ac8c7c3b925906105f19085906120e7565b60405180910390a3505b610606878783611257565b5060019695505050505050565b7f6e71edae12b1b97f4d1f60370fef10105fa2faae0126114a169c64845d6126c981565b60025481565b601281565b6001546001600160a01b031633146106755760405162461bcd60e51b815260040161066c90612065565b60405180910390fd5b6002544210156106975760405162461bcd60e51b815260040161066c90612022565b6001600160a01b0382166106bd5760405162461bcd60e51b815260040161066c90611c53565b6106c84260006113fd565b60028190555060006106f2826040518060600160405280602281526020016122c3602291396111e9565b905061070e610707600054600260ff16611422565b606461145c565b816001600160601b031611156107365760405162461bcd60e51b815260040161066c90611df9565b61076c61074e600054836001600160601b03166113fd565b60405180606001604052806027815260200161215b602791396111e9565b6001600160601b0390811660009081556001600160a01b0385168152600460209081526040918290205482516060810190935260258084526107be94919091169285929091906122e59083013961149e565b6001600160a01b03841660008181526004602052604080822080546001600160601b0319166001600160601b03959095169490941790935591519091907fddf252ad1be2c89b69c2b068fc378daa952ba7f163c4a11628f55a4df523b3ef906108289085906120e7565b60405180910390a36001600160a01b038084166000908152600560205260408120546108559216836114da565b505050565b6005602052600090815260409020546001600160a01b031681565b600081565b610884338261166c565b50565b60076020526000908152604090205463ffffffff1681565b6001600160a01b03166000908152600460205260409020546001600160601b031690565b600281565b60004382106108e95760405162461bcd60e51b815260040161066c90611f3c565b6001600160a01b03831660009081526007602052604090205463ffffffff168061091757600091505061049c565b6001600160a01b038416600090815260066020908152604080832063ffffffff600019860181168552925290912054168310610993576001600160a01b03841660009081526006602090815260408083206000199490940163ffffffff1683529290522054600160201b90046001600160601b0316905061049c565b6001600160a01b038416600090815260066020908152604080832083805290915290205463ffffffff168310156109ce57600091505061049c565b600060001982015b8163ffffffff168163ffffffff161115610a9157600282820363ffffffff16048103610a0061190d565b506001600160a01b038716600090815260066020908152604080832063ffffffff858116855290835292819020815180830190925254928316808252600160201b9093046001600160601b03169181019190915290871415610a6c5760200151945061049c9350505050565b805163ffffffff16871115610a8357819350610a8a565b6001820392505b50506109d6565b506001600160a01b038516600090815260066020908152604080832063ffffffff909416835292905220546001600160601b03600160201b9091041691505092915050565b60086020526000908152604090205481565b6040518060400160405280600481526020016342414e4b60e01b81525081565b600080610b2d8360405180606001604052806026815260200161221d602691396111e9565b9050610b3a338583611257565b5060019392505050565b6001600160a01b03811660009081526007602052604081205463ffffffff1680610b6f576000610bae565b6001600160a01b0383166000908152600660209081526040808320600019850163ffffffff168452909152902054600160201b90046001600160601b03165b9392505050565b60408051808201909152600e81526d2130b735b632b9b9902a37b5b2b760911b60209091015260007f8cad95687ba82c2ce50e74f7b754645e5117c3a5bec8151c0726d5857980a8667fe70d8a187c7ca0f071c2ad1407c90f3a6d00e1270907a73bdee9fc943e03586e610c276116f6565b30604051602001610c3b9493929190611bbe565b60405160208183030381529060405280519060200120905060007fe48329057bfd03d55e49b547132e39cffd9c1820ad7b9d4c5307691425d15adf888888604051602001610c8c9493929190611b9a565b60405160208183030381529060405280519060200120905060008282604051602001610cb9929190611b09565b604051602081830303815290604052805190602001209050600060018288888860405160008152602001604052604051610cf69493929190611be2565b6020604051602081039080840390855afa158015610d18573d6000803e3d6000fd5b5050604051601f1901519150506001600160a01b038116610d4b5760405162461bcd60e51b815260040161066c90611d7c565b6001600160a01b03811660009081526008602052604090208054600181019091558914610d8a5760405162461bcd60e51b815260040161066c90611fe0565b87421115610daa5760405162461bcd60e51b815260040161066c90611cff565b610db4818b61166c565b505050505b505050505050565b6000600019861415610dd65750600019610dfb565b610df88660405180606001604052806024815260200161230a602491396111e9565b90505b60408051808201909152600e81526d2130b735b632b9b9902a37b5b2b760911b60209091015260007f8cad95687ba82c2ce50e74f7b754645e5117c3a5bec8151c0726d5857980a8667fe70d8a187c7ca0f071c2ad1407c90f3a6d00e1270907a73bdee9fc943e03586e610e6d6116f6565b30604051602001610e819493929190611bbe565b60408051601f1981840301815282825280516020918201206001600160a01b038d166000908152600883529283208054600181019091559094509192610ef3927f6e71edae12b1b97f4d1f60370fef10105fa2faae0126114a169c64845d6126c9928e928e928e9290918e9101611b66565b60405160208183030381529060405280519060200120905060008282604051602001610f20929190611b09565b604051602081830303815290604052805190602001209050600060018289898960405160008152602001604052604051610f5d9493929190611be2565b6020604051602081039080840390855afa158015610f7f573d6000803e3d6000fd5b5050604051601f1901519150506001600160a01b038116610fb25760405162461bcd60e51b815260040161066c90611dc2565b8b6001600160a01b0316816001600160a01b031614610fe35760405162461bcd60e51b815260040161066c90611e30565b884211156110035760405162461bcd60e51b815260040161066c90611f05565b84600360008e6001600160a01b03166001600160a01b0316815260200190815260200160002060008d6001600160a01b03166001600160a01b0316815260200190815260200160002060006101000a8154816001600160601b0302191690836001600160601b031602179055508a6001600160a01b03168c6001600160a01b03167f8c5be1e5ebec7d5bd14f71427d1e84f3dd0314c0f7b2291e5b200ac8c7c3b925876040516110b391906120e7565b60405180910390a3505050505050505050505050565b6001600160a01b0391821660009081526003602090815260408083209390941682529190915220546001600160601b031690565b7fe48329057bfd03d55e49b547132e39cffd9c1820ad7b9d4c5307691425d15adf81565b600660209081526000928352604080842090915290825290205463ffffffff811690600160201b90046001600160601b031682565b6001546001600160a01b031633146111805760405162461bcd60e51b815260040161066c90611f83565b6001546040517f3b0007eb941cf645526cbb3a4fdaecda9d28ce4843167d9263b536a1f1edc0f6916111bf916001600160a01b03909116908490611b38565b60405180910390a1600180546001600160a01b0319166001600160a01b0392909216919091179055565b600081600160601b84106112105760405162461bcd60e51b815260040161066c9190611c00565b509192915050565b6000836001600160601b0316836001600160601b03161115829061124f5760405162461bcd60e51b815260040161066c9190611c00565b505050900390565b6001600160a01b03831661127d5760405162461bcd60e51b815260040161066c90611ca2565b6001600160a01b0382166112a35760405162461bcd60e51b815260040161066c90611e67565b6001600160a01b0383166000908152600460209081526040918290205482516060810190935260368084526112ee936001600160601b0390921692859291906121aa90830139611218565b6001600160a01b03848116600090815260046020908152604080832080546001600160601b0319166001600160601b03968716179055928616825290829020548251606081019093526030808452611356949190911692859290919061212b9083013961149e565b6001600160a01b038381166000818152600460205260409081902080546001600160601b0319166001600160601b0395909516949094179093559151908516907fddf252ad1be2c89b69c2b068fc378daa952ba7f163c4a11628f55a4df523b3ef906113c39085906120e7565b60405180910390a36001600160a01b03808416600090815260056020526040808220548584168352912054610855929182169116836114da565b600082820183811015610bae5760405162461bcd60e51b815260040161066c90611d45565b6000826114315750600061049c565b8282028284828161143e57fe5b0414610bae5760405162461bcd60e51b815260040161066c90611ec4565b6000610bae83836040518060400160405280601a81526020017f536166654d6174683a206469766973696f6e206279207a65726f0000000000008152506116fa565b6000838301826001600160601b0380871690831610156114d15760405162461bcd60e51b815260040161066c9190611c00565b50949350505050565b816001600160a01b0316836001600160a01b03161415801561150557506000816001600160601b0316115b15610855576001600160a01b038316156115bd576001600160a01b03831660009081526007602052604081205463ffffffff169081611545576000611584565b6001600160a01b0385166000908152600660209081526040808320600019860163ffffffff168452909152902054600160201b90046001600160601b03165b905060006115ab828560405180606001604052806028815260200161218260289139611218565b90506115b986848484611731565b5050505b6001600160a01b03821615610855576001600160a01b03821660009081526007602052604081205463ffffffff1690816115f8576000611637565b6001600160a01b0384166000908152600660209081526040808320600019860163ffffffff168452909152902054600160201b90046001600160601b03165b9050600061165e82856040518060600160405280602781526020016122776027913961149e565b9050610db985848484611731565b6001600160a01b03808316600081815260056020818152604080842080546004845282862054949093528787166001600160a01b031984168117909155905191909516946001600160601b039092169391928592917f3134e8a2e6d97e929a7e54011ea5485d7d196dd5f0ba4d4ef95803e8e3fc257f9190a46116f08284836114da565b50505050565b4690565b6000818361171b5760405162461bcd60e51b815260040161066c9190611c00565b50600083858161172757fe5b0495945050505050565b600061175543604051806060016040528060348152602001612243603491396118e6565b905060008463ffffffff1611801561179e57506001600160a01b038516600090815260066020908152604080832063ffffffff6000198901811685529252909120548282169116145b156117fd576001600160a01b0385166000908152600660209081526040808320600019880163ffffffff168452909152902080546fffffffffffffffffffffffff000000001916600160201b6001600160601b0385160217905561189c565b60408051808201825263ffffffff80841682526001600160601b0380861660208085019182526001600160a01b038b166000818152600683528781208c871682528352878120965187549451909516600160201b026fffffffffffffffffffffffff000000001995871663ffffffff19958616179590951694909417909555938252600790935292909220805460018801909316929091169190911790555b846001600160a01b03167fdec2bacdd2f05b59de34da9b523dff8be42e5e38e818c82fdb0bae774387a72484846040516118d79291906120fb565b60405180910390a25050505050565b600081600160201b84106112105760405162461bcd60e51b815260040161066c9190611c00565b604080518082019091526000808252602082015290565b80356001600160a01b038116811461049c57600080fd5b803560ff8116811461049c57600080fd5b60006020828403121561195d578081fd5b610bae8383611924565b60008060408385031215611979578081fd5b6119838484611924565b91506119928460208501611924565b90509250929050565b6000806000606084860312156119af578081fd5b83356119ba81612115565b925060208401356119ca81612115565b929592945050506040919091013590565b600080600080600080600060e0888a0312156119f5578283fd5b6119ff8989611924565b9650611a0e8960208a01611924565b95506040880135945060608801359350611a2b8960808a0161193b565b925060a0880135915060c0880135905092959891949750929550565b60008060408385031215611a59578182fd5b611a638484611924565b946020939093013593505050565b60008060008060008060c08789031215611a89578182fd5b611a938888611924565b95506020870135945060408701359350611ab0886060890161193b565b92506080870135915060a087013590509295509295509295565b60008060408385031215611adc578182fd5b611ae68484611924565b9150602083013563ffffffff81168114611afe578182fd5b809150509250929050565b61190160f01b81526002810192909252602282015260420190565b6001600160a01b0391909116815260200190565b6001600160a01b0392831681529116602082015260400190565b901515815260200190565b90815260200190565b9586526001600160a01b0394851660208701529290931660408501526060840152608083019190915260a082015260c00190565b9384526001600160a01b039290921660208401526040830152606082015260800190565b938452602084019290925260408301526001600160a01b0316606082015260800190565b93845260ff9290921660208401526040830152606082015260800190565b6000602080835283518082850152825b81811015611c2c57858101830151858201604001528201611c10565b81811115611c3d5783604083870101525b50601f01601f1916929092016040019392505050565b6020808252602f908201527f42616e6b3a3a6d696e743a2063616e6e6f74207472616e7366657220746f207460408201526e6865207a65726f206164647265737360881b606082015260800190565b6020808252603c908201527f42616e6b3a3a5f7472616e73666572546f6b656e733a2063616e6e6f7420747260408201527f616e736665722066726f6d20746865207a65726f206164647265737300000000606082015260800190565b60208082526026908201527f42616e6b3a3a64656c656761746542795369673a207369676e617475726520656040820152651e1c1a5c995960d21b606082015260800190565b6020808252601b908201527f536166654d6174683a206164646974696f6e206f766572666c6f770000000000604082015260600190565b60208082526026908201527f42616e6b3a3a64656c656761746542795369673a20696e76616c6964207369676040820152656e617475726560d01b606082015260800190565b6020808252601f908201527f42616e6b3a3a7065726d69743a20696e76616c6964207369676e617475726500604082015260600190565b6020808252601d908201527f42616e6b3a3a6d696e743a206578636565646564206d696e7420636170000000604082015260600190565b6020808252601a908201527f42616e6b3a3a7065726d69743a20756e617574686f72697a6564000000000000604082015260600190565b6020808252603a908201527f42616e6b3a3a5f7472616e73666572546f6b656e733a2063616e6e6f7420747260408201527f616e7366657220746f20746865207a65726f2061646472657373000000000000606082015260800190565b60208082526021908201527f536166654d6174683a206d756c7469706c69636174696f6e206f766572666c6f6040820152607760f81b606082015260800190565b6020808252601f908201527f42616e6b3a3a7065726d69743a207369676e6174757265206578706972656400604082015260600190565b60208082526027908201527f42616e6b3a3a6765745072696f72566f7465733a206e6f742079657420646574604082015266195c9b5a5b995960ca1b606082015260800190565b6020808252603e908201527f42616e6b3a3a7365744d696e7465723a206f6e6c7920746865206d696e74657260408201527f2063616e206368616e676520746865206d696e74657220616464726573730000606082015260800190565b60208082526022908201527f42616e6b3a3a64656c656761746542795369673a20696e76616c6964206e6f6e604082015261636560f01b606082015260800190565b60208082526023908201527f42616e6b3a3a6d696e743a206d696e74696e67206e6f7420616c6c6f776564206040820152621e595d60ea1b606082015260800190565b60208082526024908201527f42616e6b3a3a6d696e743a206f6e6c7920746865206d696e7465722063616e206040820152631b5a5b9d60e21b606082015260800190565b63ffffffff91909116815260200190565b63ffffffff9290921682526001600160601b0316602082015260400190565b60ff91909116815260200190565b6001600160601b0391909116815260200190565b6001600160601b0392831681529116602082015260400190565b6001600160a01b038116811461088457600080fdfe42616e6b3a3a5f7472616e73666572546f6b656e733a207472616e7366657220616d6f756e74206f766572666c6f777342616e6b3a3a6d696e743a20746f74616c537570706c792065786365656473203936206269747342616e6b3a3a5f6d6f7665566f7465733a20766f746520616d6f756e7420756e646572666c6f777342616e6b3a3a5f7472616e73666572546f6b656e733a207472616e7366657220616d6f756e7420657863656564732062616c616e636542616e6b3a3a7472616e7366657246726f6d3a207472616e7366657220616d6f756e742065786365656473207370656e64657220616c6c6f77616e636542616e6b3a3a7472616e736665723a20616d6f756e742065786365656473203936206269747342616e6b3a3a5f7772697465436865636b706f696e743a20626c6f636b206e756d6265722065786365656473203332206269747342616e6b3a3a5f6d6f7665566f7465733a20766f746520616d6f756e74206f766572666c6f777342616e6b3a3a617070726f76653a20616d6f756e742065786365656473203936206269747342616e6b3a3a6d696e743a20616d6f756e742065786365656473203936206269747342616e6b3a3a6d696e743a207472616e7366657220616d6f756e74206f766572666c6f777342616e6b3a3a7065726d69743a20616d6f756e7420657863656564732039362062697473a26469706673582212207fe69036d761458c68b2d0cfcbc52c3f1b743ae1759329a24defa2c136f0fd7964736f6c634300060c0033",
  "devdoc": {
    "kind": "dev",
    "methods": {
      "allowance(address,address)": {
        "params": {
          "account": "The address of the account holding the funds",
          "spender": "The address of the account spending the funds"
        },
        "returns": {
          "_0": "The number of tokens approved"
        }
      },
      "approve(address,uint256)": {
        "details": "This will overwrite the approval amount for `spender`  and is subject to issues noted [here](https://eips.ethereum.org/EIPS/eip-20#approve)",
        "params": {
          "rawAmount": "The number of tokens that are approved (2^256-1 means infinite)",
          "spender": "The address of the account which may transfer tokens"
        },
        "returns": {
          "_0": "Whether or not the approval succeeded"
        }
      },
      "balanceOf(address)": {
        "params": {
          "account": "The address of the account to get the balance of"
        },
        "returns": {
          "_0": "The number of tokens held"
        }
      },
      "constructor": {
        "params": {
          "account": "The initial account to grant all the tokens",
          "minter_": "The account with minting ability"
        }
      },
      "delegate(address)": {
        "params": {
          "delegatee": "The address to delegate votes to"
        }
      },
      "delegateBySig(address,uint256,uint256,uint8,bytes32,bytes32)": {
        "params": {
          "delegatee": "The address to delegate votes to",
          "expiry": "The time at which to expire the signature",
          "nonce": "The contract state required to match the signature",
          "r": "Half of the ECDSA signature pair",
          "s": "Half of the ECDSA signature pair",
          "v": "The recovery byte of the signature"
        }
      },
      "getCurrentVotes(address)": {
        "params": {
          "account": "The address to get votes balance"
        },
        "returns": {
          "_0": "The number of current votes for `account`"
        }
      },
      "getPriorVotes(address,uint256)": {
        "details": "Block number must be a finalized block or else this function will revert to prevent misinformation.",
        "params": {
          "account": "The address of the account to check",
          "blockNumber": "The block number to get the vote balance at"
        },
        "returns": {
          "_0": "The number of votes the account had as of the given block"
        }
      },
      "mint(address,uint256)": {
        "params": {
          "dst": "The address of the destination account",
          "rawAmount": "The number of tokens to be minted"
        }
      },
      "permit(address,address,uint256,uint256,uint8,bytes32,bytes32)": {
        "params": {
          "deadline": "The time at which to expire the signature",
          "owner": "The address to approve from",
          "r": "Half of the ECDSA signature pair",
          "rawAmount": "The number of tokens that are approved (2^256-1 means infinite)",
          "s": "Half of the ECDSA signature pair",
          "spender": "The address to be approved",
          "v": "The recovery byte of the signature"
        }
      },
      "setMinter(address)": {
        "params": {
          "minter_": "The address of the new minter"
        }
      },
      "transfer(address,uint256)": {
        "params": {
          "dst": "The address of the destination account",
          "rawAmount": "The number of tokens to transfer"
        },
        "returns": {
          "_0": "Whether or not the transfer succeeded"
        }
      },
      "transferFrom(address,address,uint256)": {
        "params": {
          "dst": "The address of the destination account",
          "rawAmount": "The number of tokens to transfer",
          "src": "The address of the source account"
        },
        "returns": {
          "_0": "Whether or not the transfer succeeded"
        }
      }
    },
    "version": 1
  },
  "userdoc": {
    "events": {
      "Approval(address,address,uint256)": {
        "notice": "The standard EIP-20 approval event"
      },
      "DelegateChanged(address,address,address)": {
        "notice": "An event thats emitted when an account changes its delegate"
      },
      "DelegateVotesChanged(address,uint256,uint256)": {
        "notice": "An event thats emitted when a delegate account's vote balance changes"
      },
      "MinterChanged(address,address)": {
        "notice": "An event thats emitted when the minter address is changed"
      },
      "Transfer(address,address,uint256)": {
        "notice": "The standard EIP-20 transfer event"
      }
    },
    "kind": "user",
    "methods": {
      "DELEGATION_TYPEHASH()": {
        "notice": "The EIP-712 typehash for the delegation struct used by the contract"
      },
      "DOMAIN_TYPEHASH()": {
        "notice": "The EIP-712 typehash for the contract's domain"
      },
      "PERMIT_TYPEHASH()": {
        "notice": "The EIP-712 typehash for the permit struct used by the contract"
      },
      "allowance(address,address)": {
        "notice": "Get the number of tokens `spender` is approved to spend on behalf of `account`"
      },
      "approve(address,uint256)": {
        "notice": "Approve `spender` to transfer up to `amount` from `src`"
      },
      "balanceOf(address)": {
        "notice": "Get the number of tokens held by the `account`"
      },
      "checkpoints(address,uint32)": {
        "notice": "A record of votes checkpoints for each account, by index"
      },
      "constructor": "Construct a new Bank token",
      "decimals()": {
        "notice": "EIP-20 token decimals for this token"
      },
      "delegate(address)": {
        "notice": "Delegate votes from `msg.sender` to `delegatee`"
      },
      "delegateBySig(address,uint256,uint256,uint8,bytes32,bytes32)": {
        "notice": "Delegates votes from signatory to `delegatee`"
      },
      "delegates(address)": {
        "notice": "A record of each accounts delegate"
      },
      "getCurrentVotes(address)": {
        "notice": "Gets the current votes balance for `account`"
      },
      "getPriorVotes(address,uint256)": {
        "notice": "Determine the prior number of votes for an account as of a block number"
      },
      "minimumTimeBetweenMints()": {
        "notice": "Minimum time between mints"
      },
      "mint(address,uint256)": {
        "notice": "Mint new tokens"
      },
      "mintCap()": {
        "notice": "Cap on the percentage of totalSupply that can be minted at each mint"
      },
      "minter()": {
        "notice": "Address which may mint new tokens"
      },
      "mintingAllowedAfter()": {
        "notice": "The timestamp after which minting may occur"
      },
      "name()": {
        "notice": "EIP-20 token name for this token"
      },
      "nonces(address)": {
        "notice": "A record of states for signing / validating signatures"
      },
      "numCheckpoints(address)": {
        "notice": "The number of checkpoints for each account"
      },
      "permit(address,address,uint256,uint256,uint8,bytes32,bytes32)": {
        "notice": "Triggers an approval from owner to spends"
      },
      "setMinter(address)": {
        "notice": "Change the minter address"
      },
      "symbol()": {
        "notice": "EIP-20 token symbol for this token"
      },
      "totalSupply()": {
        "notice": "Total number of tokens in circulation"
      },
      "transfer(address,uint256)": {
        "notice": "Transfer `amount` tokens from `msg.sender` to `dst`"
      },
      "transferFrom(address,address,uint256)": {
        "notice": "Transfer `amount` tokens from `src` to `dst`"
      }
    },
    "version": 1
  },
  "storageLayout": {
    "storage": [
      {
        "astId": 277,
        "contract": "contracts/test/Bank.sol:Bank",
        "label": "totalSupply",
        "offset": 0,
        "slot": "0",
        "type": "t_uint256"
      },
      {
        "astId": 280,
        "contract": "contracts/test/Bank.sol:Bank",
        "label": "minter",
        "offset": 0,
        "slot": "1",
        "type": "t_address"
      },
      {
        "astId": 283,
        "contract": "contracts/test/Bank.sol:Bank",
        "label": "mintingAllowedAfter",
        "offset": 0,
        "slot": "2",
        "type": "t_uint256"
      },
      {
        "astId": 298,
        "contract": "contracts/test/Bank.sol:Bank",
        "label": "allowances",
        "offset": 0,
        "slot": "3",
        "type": "t_mapping(t_address,t_mapping(t_address,t_uint96))"
      },
      {
        "astId": 303,
        "contract": "contracts/test/Bank.sol:Bank",
        "label": "balances",
        "offset": 0,
        "slot": "4",
        "type": "t_mapping(t_address,t_uint96)"
      },
      {
        "astId": 308,
        "contract": "contracts/test/Bank.sol:Bank",
        "label": "delegates",
        "offset": 0,
        "slot": "5",
        "type": "t_mapping(t_address,t_address)"
      },
      {
        "astId": 320,
        "contract": "contracts/test/Bank.sol:Bank",
        "label": "checkpoints",
        "offset": 0,
        "slot": "6",
        "type": "t_mapping(t_address,t_mapping(t_uint32,t_struct(Checkpoint)313_storage))"
      },
      {
        "astId": 325,
        "contract": "contracts/test/Bank.sol:Bank",
        "label": "numCheckpoints",
        "offset": 0,
        "slot": "7",
        "type": "t_mapping(t_address,t_uint32)"
      },
      {
        "astId": 348,
        "contract": "contracts/test/Bank.sol:Bank",
        "label": "nonces",
        "offset": 0,
        "slot": "8",
        "type": "t_mapping(t_address,t_uint256)"
      }
    ],
    "types": {
      "t_address": {
        "encoding": "inplace",
        "label": "address",
        "numberOfBytes": "20"
      },
      "t_mapping(t_address,t_address)": {
        "encoding": "mapping",
        "key": "t_address",
        "label": "mapping(address => address)",
        "numberOfBytes": "32",
        "value": "t_address"
      },
      "t_mapping(t_address,t_mapping(t_address,t_uint96))": {
        "encoding": "mapping",
        "key": "t_address",
        "label": "mapping(address => mapping(address => uint96))",
        "numberOfBytes": "32",
        "value": "t_mapping(t_address,t_uint96)"
      },
      "t_mapping(t_address,t_mapping(t_uint32,t_struct(Checkpoint)313_storage))": {
        "encoding": "mapping",
        "key": "t_address",
        "label": "mapping(address => mapping(uint32 => struct Bank.Checkpoint))",
        "numberOfBytes": "32",
        "value": "t_mapping(t_uint32,t_struct(Checkpoint)313_storage)"
      },
      "t_mapping(t_address,t_uint256)": {
        "encoding": "mapping",
        "key": "t_address",
        "label": "mapping(address => uint256)",
        "numberOfBytes": "32",
        "value": "t_uint256"
      },
      "t_mapping(t_address,t_uint32)": {
        "encoding": "mapping",
        "key": "t_address",
        "label": "mapping(address => uint32)",
        "numberOfBytes": "32",
        "value": "t_uint32"
      },
      "t_mapping(t_address,t_uint96)": {
        "encoding": "mapping",
        "key": "t_address",
        "label": "mapping(address => uint96)",
        "numberOfBytes": "32",
        "value": "t_uint96"
      },
      "t_mapping(t_uint32,t_struct(Checkpoint)313_storage)": {
        "encoding": "mapping",
        "key": "t_uint32",
        "label": "mapping(uint32 => struct Bank.Checkpoint)",
        "numberOfBytes": "32",
        "value": "t_struct(Checkpoint)313_storage"
      },
      "t_struct(Checkpoint)313_storage": {
        "encoding": "inplace",
        "label": "struct Bank.Checkpoint",
        "members": [
          {
            "astId": 310,
            "contract": "contracts/test/Bank.sol:Bank",
            "label": "fromBlock",
            "offset": 0,
            "slot": "0",
            "type": "t_uint32"
          },
          {
            "astId": 312,
            "contract": "contracts/test/Bank.sol:Bank",
            "label": "votes",
            "offset": 4,
            "slot": "0",
            "type": "t_uint96"
          }
        ],
        "numberOfBytes": "32"
      },
      "t_uint256": {
        "encoding": "inplace",
        "label": "uint256",
        "numberOfBytes": "32"
      },
      "t_uint32": {
        "encoding": "inplace",
        "label": "uint32",
        "numberOfBytes": "4"
      },
      "t_uint96": {
        "encoding": "inplace",
        "label": "uint96",
        "numberOfBytes": "12"
      }
    }
  }
}